{
  "_format": "hh-sol-artifact-1",
  "contractName": "OneNFT",
  "sourceName": "contracts/OneNFT.sol",
  "abi": [
    {
      "inputs": [
        {
          "internalType": "string",
          "name": "name",
          "type": "string"
        },
        {
          "internalType": "string",
          "name": "symbol",
          "type": "string"
        }
      ],
      "stateMutability": "nonpayable",
      "type": "constructor"
    },
    {
      "anonymous": false,
      "inputs": [
        {
          "indexed": true,
          "internalType": "address",
          "name": "owner",
          "type": "address"
        },
        {
          "indexed": true,
          "internalType": "address",
          "name": "approved",
          "type": "address"
        },
        {
          "indexed": true,
          "internalType": "uint256",
          "name": "tokenId",
          "type": "uint256"
        }
      ],
      "name": "Approval",
      "type": "event"
    },
    {
      "anonymous": false,
      "inputs": [
        {
          "indexed": true,
          "internalType": "address",
          "name": "owner",
          "type": "address"
        },
        {
          "indexed": true,
          "internalType": "address",
          "name": "operator",
          "type": "address"
        },
        {
          "indexed": false,
          "internalType": "bool",
          "name": "approved",
          "type": "bool"
        }
      ],
      "name": "ApprovalForAll",
      "type": "event"
    },
    {
      "anonymous": false,
      "inputs": [
        {
          "indexed": true,
          "internalType": "bytes32",
          "name": "role",
          "type": "bytes32"
        },
        {
          "indexed": true,
          "internalType": "bytes32",
          "name": "previousAdminRole",
          "type": "bytes32"
        },
        {
          "indexed": true,
          "internalType": "bytes32",
          "name": "newAdminRole",
          "type": "bytes32"
        }
      ],
      "name": "RoleAdminChanged",
      "type": "event"
    },
    {
      "anonymous": false,
      "inputs": [
        {
          "indexed": true,
          "internalType": "bytes32",
          "name": "role",
          "type": "bytes32"
        },
        {
          "indexed": true,
          "internalType": "address",
          "name": "account",
          "type": "address"
        },
        {
          "indexed": true,
          "internalType": "address",
          "name": "sender",
          "type": "address"
        }
      ],
      "name": "RoleGranted",
      "type": "event"
    },
    {
      "anonymous": false,
      "inputs": [
        {
          "indexed": true,
          "internalType": "bytes32",
          "name": "role",
          "type": "bytes32"
        },
        {
          "indexed": true,
          "internalType": "address",
          "name": "account",
          "type": "address"
        },
        {
          "indexed": true,
          "internalType": "address",
          "name": "sender",
          "type": "address"
        }
      ],
      "name": "RoleRevoked",
      "type": "event"
    },
    {
      "anonymous": false,
      "inputs": [
        {
          "indexed": true,
          "internalType": "address",
          "name": "from",
          "type": "address"
        },
        {
          "indexed": true,
          "internalType": "address",
          "name": "to",
          "type": "address"
        },
        {
          "indexed": true,
          "internalType": "uint256",
          "name": "tokenId",
          "type": "uint256"
        }
      ],
      "name": "Transfer",
      "type": "event"
    },
    {
      "inputs": [],
      "name": "DEFAULT_ADMIN_ROLE",
      "outputs": [
        {
          "internalType": "bytes32",
          "name": "",
          "type": "bytes32"
        }
      ],
      "stateMutability": "view",
      "type": "function"
    },
    {
      "inputs": [],
      "name": "MINTER_ROLE",
      "outputs": [
        {
          "internalType": "bytes32",
          "name": "",
          "type": "bytes32"
        }
      ],
      "stateMutability": "view",
      "type": "function"
    },
    {
      "inputs": [
        {
          "internalType": "address",
          "name": "to",
          "type": "address"
        },
        {
          "internalType": "uint256",
          "name": "tokenId",
          "type": "uint256"
        }
      ],
      "name": "approve",
      "outputs": [],
      "stateMutability": "nonpayable",
      "type": "function"
    },
    {
      "inputs": [
        {
          "internalType": "address",
          "name": "owner",
          "type": "address"
        }
      ],
      "name": "balanceOf",
      "outputs": [
        {
          "internalType": "uint256",
          "name": "",
          "type": "uint256"
        }
      ],
      "stateMutability": "view",
      "type": "function"
    },
    {
      "inputs": [
        {
          "internalType": "uint256",
          "name": "tokenId",
          "type": "uint256"
        }
      ],
      "name": "getApproved",
      "outputs": [
        {
          "internalType": "address",
          "name": "",
          "type": "address"
        }
      ],
      "stateMutability": "view",
      "type": "function"
    },
    {
      "inputs": [
        {
          "internalType": "bytes32",
          "name": "role",
          "type": "bytes32"
        }
      ],
      "name": "getRoleAdmin",
      "outputs": [
        {
          "internalType": "bytes32",
          "name": "",
          "type": "bytes32"
        }
      ],
      "stateMutability": "view",
      "type": "function"
    },
    {
      "inputs": [
        {
          "internalType": "bytes32",
          "name": "role",
          "type": "bytes32"
        },
        {
          "internalType": "address",
          "name": "account",
          "type": "address"
        }
      ],
      "name": "grantRole",
      "outputs": [],
      "stateMutability": "nonpayable",
      "type": "function"
    },
    {
      "inputs": [
        {
          "internalType": "bytes32",
          "name": "role",
          "type": "bytes32"
        },
        {
          "internalType": "address",
          "name": "account",
          "type": "address"
        }
      ],
      "name": "hasRole",
      "outputs": [
        {
          "internalType": "bool",
          "name": "",
          "type": "bool"
        }
      ],
      "stateMutability": "view",
      "type": "function"
    },
    {
      "inputs": [
        {
          "internalType": "address",
          "name": "owner",
          "type": "address"
        },
        {
          "internalType": "address",
          "name": "operator",
          "type": "address"
        }
      ],
      "name": "isApprovedForAll",
      "outputs": [
        {
          "internalType": "bool",
          "name": "",
          "type": "bool"
        }
      ],
      "stateMutability": "view",
      "type": "function"
    },
    {
      "inputs": [
        {
          "internalType": "address",
          "name": "to",
          "type": "address"
        }
      ],
      "name": "mint",
      "outputs": [
        {
          "internalType": "uint256",
          "name": "",
          "type": "uint256"
        }
      ],
      "stateMutability": "nonpayable",
      "type": "function"
    },
    {
      "inputs": [],
      "name": "name",
      "outputs": [
        {
          "internalType": "string",
          "name": "",
          "type": "string"
        }
      ],
      "stateMutability": "view",
      "type": "function"
    },
    {
      "inputs": [
        {
          "internalType": "uint256",
          "name": "tokenId",
          "type": "uint256"
        }
      ],
      "name": "ownerOf",
      "outputs": [
        {
          "internalType": "address",
          "name": "",
          "type": "address"
        }
      ],
      "stateMutability": "view",
      "type": "function"
    },
    {
      "inputs": [
        {
          "internalType": "bytes32",
          "name": "role",
          "type": "bytes32"
        },
        {
          "internalType": "address",
          "name": "account",
          "type": "address"
        }
      ],
      "name": "renounceRole",
      "outputs": [],
      "stateMutability": "nonpayable",
      "type": "function"
    },
    {
      "inputs": [
        {
          "internalType": "bytes32",
          "name": "role",
          "type": "bytes32"
        },
        {
          "internalType": "address",
          "name": "account",
          "type": "address"
        }
      ],
      "name": "revokeRole",
      "outputs": [],
      "stateMutability": "nonpayable",
      "type": "function"
    },
    {
      "inputs": [
        {
          "internalType": "address",
          "name": "from",
          "type": "address"
        },
        {
          "internalType": "address",
          "name": "to",
          "type": "address"
        },
        {
          "internalType": "uint256",
          "name": "tokenId",
          "type": "uint256"
        }
      ],
      "name": "safeTransferFrom",
      "outputs": [],
      "stateMutability": "nonpayable",
      "type": "function"
    },
    {
      "inputs": [
        {
          "internalType": "address",
          "name": "from",
          "type": "address"
        },
        {
          "internalType": "address",
          "name": "to",
          "type": "address"
        },
        {
          "internalType": "uint256",
          "name": "tokenId",
          "type": "uint256"
        },
        {
          "internalType": "bytes",
          "name": "data",
          "type": "bytes"
        }
      ],
      "name": "safeTransferFrom",
      "outputs": [],
      "stateMutability": "nonpayable",
      "type": "function"
    },
    {
      "inputs": [
        {
          "internalType": "address",
          "name": "operator",
          "type": "address"
        },
        {
          "internalType": "bool",
          "name": "approved",
          "type": "bool"
        }
      ],
      "name": "setApprovalForAll",
      "outputs": [],
      "stateMutability": "nonpayable",
      "type": "function"
    },
    {
      "inputs": [
        {
          "internalType": "uint256",
          "name": "tokenId",
          "type": "uint256"
        },
        {
          "internalType": "string",
          "name": "_tokenURI",
          "type": "string"
        }
      ],
      "name": "setTokenURI",
      "outputs": [],
      "stateMutability": "nonpayable",
      "type": "function"
    },
    {
      "inputs": [
        {
          "internalType": "bytes4",
          "name": "interfaceId",
          "type": "bytes4"
        }
      ],
      "name": "supportsInterface",
      "outputs": [
        {
          "internalType": "bool",
          "name": "",
          "type": "bool"
        }
      ],
      "stateMutability": "view",
      "type": "function"
    },
    {
      "inputs": [],
      "name": "symbol",
      "outputs": [
        {
          "internalType": "string",
          "name": "",
          "type": "string"
        }
      ],
      "stateMutability": "view",
      "type": "function"
    },
    {
      "inputs": [
        {
          "internalType": "uint256",
          "name": "tokenId",
          "type": "uint256"
        }
      ],
      "name": "tokenURI",
      "outputs": [
        {
          "internalType": "string",
          "name": "",
          "type": "string"
        }
      ],
      "stateMutability": "view",
      "type": "function"
    },
    {
      "inputs": [
        {
          "internalType": "address",
          "name": "from",
          "type": "address"
        },
        {
          "internalType": "address",
          "name": "to",
          "type": "address"
        },
        {
          "internalType": "uint256",
          "name": "tokenId",
          "type": "uint256"
        }
      ],
      "name": "transferFrom",
      "outputs": [],
      "stateMutability": "nonpayable",
      "type": "function"
    }
  ],
  "bytecode": "0x60806040523480156200001157600080fd5b5060405162003ad738038062003ad78339818101604052810190620000379190620003bc565b818181600090816200004a91906200068c565b5080600190816200005c91906200068c565b505050620000746000801b33620000ae60201b60201c565b620000a67f9f2df0fed2c77648de5860a4cc508cd0818c85b8b8a1ab4ceeef8d981c8956a633620000ae60201b60201c565b505062000773565b620000c08282620000c460201b60201c565b5050565b620000d68282620001b660201b60201c565b620001b25760016006600084815260200190815260200160002060000160008373ffffffffffffffffffffffffffffffffffffffff1673ffffffffffffffffffffffffffffffffffffffff16815260200190815260200160002060006101000a81548160ff021916908315150217905550620001576200022160201b60201c565b73ffffffffffffffffffffffffffffffffffffffff168173ffffffffffffffffffffffffffffffffffffffff16837f2f8788117e7eff1d82e926ec794901d17c78024a50270940304540a733656f0d60405160405180910390a45b5050565b60006006600084815260200190815260200160002060000160008373ffffffffffffffffffffffffffffffffffffffff1673ffffffffffffffffffffffffffffffffffffffff16815260200190815260200160002060009054906101000a900460ff16905092915050565b600033905090565b6000604051905090565b600080fd5b600080fd5b600080fd5b600080fd5b6000601f19601f8301169050919050565b7f4e487b7100000000000000000000000000000000000000000000000000000000600052604160045260246000fd5b620002928262000247565b810181811067ffffffffffffffff82111715620002b457620002b362000258565b5b80604052505050565b6000620002c962000229565b9050620002d7828262000287565b919050565b600067ffffffffffffffff821115620002fa57620002f962000258565b5b620003058262000247565b9050602081019050919050565b60005b838110156200033257808201518184015260208101905062000315565b60008484015250505050565b6000620003556200034f84620002dc565b620002bd565b90508281526020810184848401111562000374576200037362000242565b5b6200038184828562000312565b509392505050565b600082601f830112620003a157620003a06200023d565b5b8151620003b38482602086016200033e565b91505092915050565b60008060408385031215620003d657620003d562000233565b5b600083015167ffffffffffffffff811115620003f757620003f662000238565b5b620004058582860162000389565b925050602083015167ffffffffffffffff81111562000429576200042862000238565b5b620004378582860162000389565b9150509250929050565b600081519050919050565b7f4e487b7100000000000000000000000000000000000000000000000000000000600052602260045260246000fd5b600060028204905060018216806200049457607f821691505b602082108103620004aa57620004a96200044c565b5b50919050565b60008190508160005260206000209050919050565b60006020601f8301049050919050565b600082821b905092915050565b600060088302620005147fffffffffffffffffffffffffffffffffffffffffffffffffffffffffffffffff82620004d5565b620005208683620004d5565b95508019841693508086168417925050509392505050565b6000819050919050565b6000819050919050565b60006200056d62000567620005618462000538565b62000542565b62000538565b9050919050565b6000819050919050565b62000589836200054c565b620005a1620005988262000574565b848454620004e2565b825550505050565b600090565b620005b8620005a9565b620005c58184846200057e565b505050565b5b81811015620005ed57620005e1600082620005ae565b600181019050620005cb565b5050565b601f8211156200063c576200060681620004b0565b6200061184620004c5565b8101602085101562000621578190505b620006396200063085620004c5565b830182620005ca565b50505b505050565b600082821c905092915050565b6000620006616000198460080262000641565b1980831691505092915050565b60006200067c83836200064e565b9150826002028217905092915050565b620006978262000441565b67ffffffffffffffff811115620006b357620006b262000258565b5b620006bf82546200047b565b620006cc828285620005f1565b600060209050601f831160018114620007045760008415620006ef578287015190505b620006fb85826200066e565b8655506200076b565b601f1984166200071486620004b0565b60005b828110156200073e5784890151825560018201915060208501945060208101905062000717565b868310156200075e57848901516200075a601f8916826200064e565b8355505b6001600288020188555050505b505050505050565b61335480620007836000396000f3fe608060405234801561001057600080fd5b50600436106101425760003560e01c80636a627842116100b8578063a22cb4651161007c578063a22cb46514610399578063b88d4fde146103b5578063c87b56dd146103d1578063d539139314610401578063d547741f1461041f578063e985e9c51461043b57610142565b80636a627842146102cd57806370a08231146102fd57806391d148541461032d57806395d89b411461035d578063a217fddf1461037b57610142565b806323b872dd1161010a57806323b872dd146101fd578063248a9ca3146102195780632f2ff15d1461024957806336568abe1461026557806342842e0e146102815780636352211e1461029d57610142565b806301ffc9a71461014757806306fdde0314610177578063081812fc14610195578063095ea7b3146101c5578063162094c4146101e1575b600080fd5b610161600480360381019061015c9190611eee565b61046b565b60405161016e9190611f36565b60405180910390f35b61017f61047d565b60405161018c9190611fe1565b60405180910390f35b6101af60048036038101906101aa9190612039565b61050f565b6040516101bc91906120a7565b60405180910390f35b6101df60048036038101906101da91906120ee565b610555565b005b6101fb60048036038101906101f69190612263565b61066c565b005b610217600480360381019061021291906122bf565b6106bc565b005b610233600480360381019061022e9190612348565b610719565b6040516102409190612384565b60405180910390f35b610263600480360381019061025e919061239f565b610739565b005b61027f600480360381019061027a919061239f565b61075a565b005b61029b600480360381019061029691906122bf565b6107dd565b005b6102b760048036038101906102b29190612039565b61083a565b6040516102c491906120a7565b60405180910390f35b6102e760048036038101906102e291906123df565b6108eb565b6040516102f4919061241b565b60405180910390f35b610317600480360381019061031291906123df565b610990565b604051610324919061241b565b60405180910390f35b6103476004803603810190610342919061239f565b610a47565b6040516103549190611f36565b60405180910390f35b610365610ab2565b6040516103729190611fe1565b60405180910390f35b610383610b44565b6040516103909190612384565b60405180910390f35b6103b360048036038101906103ae9190612462565b610b4b565b005b6103cf60048036038101906103ca9190612543565b610b61565b005b6103eb60048036038101906103e69190612039565b610bc0565b6040516103f89190611fe1565b60405180910390f35b610409610c65565b6040516104169190612384565b60405180910390f35b6104396004803603810190610434919061239f565b610c89565b005b610455600480360381019061045091906125c6565b610caa565b6040516104629190611f36565b60405180910390f35b600061047682610d3e565b9050919050565b60606000805461048c90612635565b80601f01602080910402602001604051908101604052809291908181526020018280546104b890612635565b80156105055780601f106104da57610100808354040283529160200191610505565b820191906000526020600020905b8154815290600101906020018083116104e857829003601f168201915b5050505050905090565b600061051a82610db8565b6004600083815260200190815260200160002060009054906101000a900473ffffffffffffffffffffffffffffffffffffffff169050919050565b60006105608261083a565b90508073ffffffffffffffffffffffffffffffffffffffff168373ffffffffffffffffffffffffffffffffffffffff16036105d0576040517f08c379a00000000000000000000000000000000000000000000000000000000081526004016105c7906126d8565b60405180910390fd5b8073ffffffffffffffffffffffffffffffffffffffff166105ef610e03565b73ffffffffffffffffffffffffffffffffffffffff16148061061e575061061d81610618610e03565b610caa565b5b61065d576040517f08c379a00000000000000000000000000000000000000000000000000000000081526004016106549061276a565b60405180910390fd5b6106678383610e0b565b505050565b7f9f2df0fed2c77648de5860a4cc508cd0818c85b8b8a1ab4ceeef8d981c8956a661069681610ec4565b816008600085815260200190815260200160002090816106b69190612936565b50505050565b8160006106c882610990565b14610708576040517f08c379a00000000000000000000000000000000000000000000000000000000081526004016106ff90612a54565b60405180910390fd5b610713848484610ed8565b50505050565b600060066000838152602001908152602001600020600101549050919050565b61074282610719565b61074b81610ec4565b6107558383610f38565b505050565b610762610e03565b73ffffffffffffffffffffffffffffffffffffffff168173ffffffffffffffffffffffffffffffffffffffff16146107cf576040517f08c379a00000000000000000000000000000000000000000000000000000000081526004016107c690612ae6565b60405180910390fd5b6107d98282611019565b5050565b8160006107e982610990565b14610829576040517f08c379a000000000000000000000000000000000000000000000000000000000815260040161082090612a54565b60405180910390fd5b6108348484846110fb565b50505050565b6000806002600084815260200190815260200160002060009054906101000a900473ffffffffffffffffffffffffffffffffffffffff169050600073ffffffffffffffffffffffffffffffffffffffff168173ffffffffffffffffffffffffffffffffffffffff16036108e2576040517f08c379a00000000000000000000000000000000000000000000000000000000081526004016108d990612b52565b60405180910390fd5b80915050919050565b60007f9f2df0fed2c77648de5860a4cc508cd0818c85b8b8a1ab4ceeef8d981c8956a661091781610ec4565b82600061092382610990565b14610963576040517f08c379a000000000000000000000000000000000000000000000000000000000815260040161095a90612a54565b60405180910390fd5b600061096f600761111b565b905061097b8582611129565b6109856007611302565b809350505050919050565b60008073ffffffffffffffffffffffffffffffffffffffff168273ffffffffffffffffffffffffffffffffffffffff1603610a00576040517f08c379a00000000000000000000000000000000000000000000000000000000081526004016109f790612be4565b60405180910390fd5b600360008373ffffffffffffffffffffffffffffffffffffffff1673ffffffffffffffffffffffffffffffffffffffff168152602001908152602001600020549050919050565b60006006600084815260200190815260200160002060000160008373ffffffffffffffffffffffffffffffffffffffff1673ffffffffffffffffffffffffffffffffffffffff16815260200190815260200160002060009054906101000a900460ff16905092915050565b606060018054610ac190612635565b80601f0160208091040260200160405190810160405280929190818152602001828054610aed90612635565b8015610b3a5780601f10610b0f57610100808354040283529160200191610b3a565b820191906000526020600020905b815481529060010190602001808311610b1d57829003601f168201915b5050505050905090565b6000801b81565b610b5d610b56610e03565b8383611318565b5050565b826000610b6d82610990565b14610bad576040517f08c379a0000000000000000000000000000000000000000000000000000000008152600401610ba490612a54565b60405180910390fd5b610bb985858585611484565b5050505050565b6060600860008381526020019081526020016000208054610be090612635565b80601f0160208091040260200160405190810160405280929190818152602001828054610c0c90612635565b8015610c595780601f10610c2e57610100808354040283529160200191610c59565b820191906000526020600020905b815481529060010190602001808311610c3c57829003601f168201915b50505050509050919050565b7f9f2df0fed2c77648de5860a4cc508cd0818c85b8b8a1ab4ceeef8d981c8956a681565b610c9282610719565b610c9b81610ec4565b610ca58383611019565b505050565b6000600560008473ffffffffffffffffffffffffffffffffffffffff1673ffffffffffffffffffffffffffffffffffffffff16815260200190815260200160002060008373ffffffffffffffffffffffffffffffffffffffff1673ffffffffffffffffffffffffffffffffffffffff16815260200190815260200160002060009054906101000a900460ff16905092915050565b60007f7965db0b000000000000000000000000000000000000000000000000000000007bffffffffffffffffffffffffffffffffffffffffffffffffffffffff1916827bffffffffffffffffffffffffffffffffffffffffffffffffffffffff19161480610db15750610db0826114e6565b5b9050919050565b610dc1816115c8565b610e00576040517f08c379a0000000000000000000000000000000000000000000000000000000008152600401610df790612b52565b60405180910390fd5b50565b600033905090565b816004600083815260200190815260200160002060006101000a81548173ffffffffffffffffffffffffffffffffffffffff021916908373ffffffffffffffffffffffffffffffffffffffff160217905550808273ffffffffffffffffffffffffffffffffffffffff16610e7e8361083a565b73ffffffffffffffffffffffffffffffffffffffff167f8c5be1e5ebec7d5bd14f71427d1e84f3dd0314c0f7b2291e5b200ac8c7c3b92560405160405180910390a45050565b610ed581610ed0610e03565b611634565b50565b610ee9610ee3610e03565b826116d1565b610f28576040517f08c379a0000000000000000000000000000000000000000000000000000000008152600401610f1f90612c76565b60405180910390fd5b610f33838383611766565b505050565b610f428282610a47565b6110155760016006600084815260200190815260200160002060000160008373ffffffffffffffffffffffffffffffffffffffff1673ffffffffffffffffffffffffffffffffffffffff16815260200190815260200160002060006101000a81548160ff021916908315150217905550610fba610e03565b73ffffffffffffffffffffffffffffffffffffffff168173ffffffffffffffffffffffffffffffffffffffff16837f2f8788117e7eff1d82e926ec794901d17c78024a50270940304540a733656f0d60405160405180910390a45b5050565b6110238282610a47565b156110f75760006006600084815260200190815260200160002060000160008373ffffffffffffffffffffffffffffffffffffffff1673ffffffffffffffffffffffffffffffffffffffff16815260200190815260200160002060006101000a81548160ff02191690831515021790555061109c610e03565b73ffffffffffffffffffffffffffffffffffffffff168173ffffffffffffffffffffffffffffffffffffffff16837ff6391f5c32d9c69d2a47ea670b442974b53935d1edc7fd64eb21e047a839171b60405160405180910390a45b5050565b61111683838360405180602001604052806000815250610b61565b505050565b600081600001549050919050565b600073ffffffffffffffffffffffffffffffffffffffff168273ffffffffffffffffffffffffffffffffffffffff1603611198576040517f08c379a000000000000000000000000000000000000000000000000000000000815260040161118f90612ce2565b60405180910390fd5b6111a1816115c8565b156111e1576040517f08c379a00000000000000000000000000000000000000000000000000000000081526004016111d890612d4e565b60405180910390fd5b6111ed600083836119cc565b6001600360008473ffffffffffffffffffffffffffffffffffffffff1673ffffffffffffffffffffffffffffffffffffffff168152602001908152602001600020600082825461123d9190612d9d565b92505081905550816002600083815260200190815260200160002060006101000a81548173ffffffffffffffffffffffffffffffffffffffff021916908373ffffffffffffffffffffffffffffffffffffffff160217905550808273ffffffffffffffffffffffffffffffffffffffff16600073ffffffffffffffffffffffffffffffffffffffff167fddf252ad1be2c89b69c2b068fc378daa952ba7f163c4a11628f55a4df523b3ef60405160405180910390a46112fe600083836119d1565b5050565b6001816000016000828254019250508190555050565b8173ffffffffffffffffffffffffffffffffffffffff168373ffffffffffffffffffffffffffffffffffffffff1603611386576040517f08c379a000000000000000000000000000000000000000000000000000000000815260040161137d90612e1d565b60405180910390fd5b80600560008573ffffffffffffffffffffffffffffffffffffffff1673ffffffffffffffffffffffffffffffffffffffff16815260200190815260200160002060008473ffffffffffffffffffffffffffffffffffffffff1673ffffffffffffffffffffffffffffffffffffffff16815260200190815260200160002060006101000a81548160ff0219169083151502179055508173ffffffffffffffffffffffffffffffffffffffff168373ffffffffffffffffffffffffffffffffffffffff167f17307eab39ab6107e8899845ad3d59bd9653f200f220920489ca2b5937696c31836040516114779190611f36565b60405180910390a3505050565b61149561148f610e03565b836116d1565b6114d4576040517f08c379a00000000000000000000000000000000000000000000000000000000081526004016114cb90612c76565b60405180910390fd5b6114e0848484846119d6565b50505050565b60007f80ac58cd000000000000000000000000000000000000000000000000000000007bffffffffffffffffffffffffffffffffffffffffffffffffffffffff1916827bffffffffffffffffffffffffffffffffffffffffffffffffffffffff191614806115b157507f5b5e139f000000000000000000000000000000000000000000000000000000007bffffffffffffffffffffffffffffffffffffffffffffffffffffffff1916827bffffffffffffffffffffffffffffffffffffffffffffffffffffffff1916145b806115c157506115c082611a32565b5b9050919050565b60008073ffffffffffffffffffffffffffffffffffffffff166002600084815260200190815260200160002060009054906101000a900473ffffffffffffffffffffffffffffffffffffffff1673ffffffffffffffffffffffffffffffffffffffff1614159050919050565b61163e8282610a47565b6116cd576116638173ffffffffffffffffffffffffffffffffffffffff166014611a9c565b6116718360001c6020611a9c565b604051602001611682929190612f11565b6040516020818303038152906040526040517f08c379a00000000000000000000000000000000000000000000000000000000081526004016116c49190611fe1565b60405180910390fd5b5050565b6000806116dd8361083a565b90508073ffffffffffffffffffffffffffffffffffffffff168473ffffffffffffffffffffffffffffffffffffffff16148061171f575061171e8185610caa565b5b8061175d57508373ffffffffffffffffffffffffffffffffffffffff166117458461050f565b73ffffffffffffffffffffffffffffffffffffffff16145b91505092915050565b8273ffffffffffffffffffffffffffffffffffffffff166117868261083a565b73ffffffffffffffffffffffffffffffffffffffff16146117dc576040517f08c379a00000000000000000000000000000000000000000000000000000000081526004016117d390612fbd565b60405180910390fd5b600073ffffffffffffffffffffffffffffffffffffffff168273ffffffffffffffffffffffffffffffffffffffff160361184b576040517f08c379a00000000000000000000000000000000000000000000000000000000081526004016118429061304f565b60405180910390fd5b6118568383836119cc565b611861600082610e0b565b6001600360008573ffffffffffffffffffffffffffffffffffffffff1673ffffffffffffffffffffffffffffffffffffffff16815260200190815260200160002060008282546118b1919061306f565b925050819055506001600360008473ffffffffffffffffffffffffffffffffffffffff1673ffffffffffffffffffffffffffffffffffffffff16815260200190815260200160002060008282546119089190612d9d565b92505081905550816002600083815260200190815260200160002060006101000a81548173ffffffffffffffffffffffffffffffffffffffff021916908373ffffffffffffffffffffffffffffffffffffffff160217905550808273ffffffffffffffffffffffffffffffffffffffff168473ffffffffffffffffffffffffffffffffffffffff167fddf252ad1be2c89b69c2b068fc378daa952ba7f163c4a11628f55a4df523b3ef60405160405180910390a46119c78383836119d1565b505050565b505050565b505050565b6119e1848484611766565b6119ed84848484611cd8565b611a2c576040517f08c379a0000000000000000000000000000000000000000000000000000000008152600401611a2390613115565b60405180910390fd5b50505050565b60007f01ffc9a7000000000000000000000000000000000000000000000000000000007bffffffffffffffffffffffffffffffffffffffffffffffffffffffff1916827bffffffffffffffffffffffffffffffffffffffffffffffffffffffff1916149050919050565b606060006002836002611aaf9190613135565b611ab99190612d9d565b67ffffffffffffffff811115611ad257611ad1612138565b5b6040519080825280601f01601f191660200182016040528015611b045781602001600182028036833780820191505090505b5090507f300000000000000000000000000000000000000000000000000000000000000081600081518110611b3c57611b3b613177565b5b60200101907effffffffffffffffffffffffffffffffffffffffffffffffffffffffffffff1916908160001a9053507f780000000000000000000000000000000000000000000000000000000000000081600181518110611ba057611b9f613177565b5b60200101907effffffffffffffffffffffffffffffffffffffffffffffffffffffffffffff1916908160001a90535060006001846002611be09190613135565b611bea9190612d9d565b90505b6001811115611c8a577f3031323334353637383961626364656600000000000000000000000000000000600f861660108110611c2c57611c2b613177565b5b1a60f81b828281518110611c4357611c42613177565b5b60200101907effffffffffffffffffffffffffffffffffffffffffffffffffffffffffffff1916908160001a905350600485901c945080611c83906131a6565b9050611bed565b5060008414611cce576040517f08c379a0000000000000000000000000000000000000000000000000000000008152600401611cc59061321b565b60405180910390fd5b8091505092915050565b6000611cf98473ffffffffffffffffffffffffffffffffffffffff16611e5f565b15611e52578373ffffffffffffffffffffffffffffffffffffffff1663150b7a02611d22610e03565b8786866040518563ffffffff1660e01b8152600401611d449493929190613290565b6020604051808303816000875af1925050508015611d8057506040513d601f19601f82011682018060405250810190611d7d91906132f1565b60015b611e02573d8060008114611db0576040519150601f19603f3d011682016040523d82523d6000602084013e611db5565b606091505b506000815103611dfa576040517f08c379a0000000000000000000000000000000000000000000000000000000008152600401611df190613115565b60405180910390fd5b805181602001fd5b63150b7a0260e01b7bffffffffffffffffffffffffffffffffffffffffffffffffffffffff1916817bffffffffffffffffffffffffffffffffffffffffffffffffffffffff191614915050611e57565b600190505b949350505050565b6000808273ffffffffffffffffffffffffffffffffffffffff163b119050919050565b6000604051905090565b600080fd5b600080fd5b60007fffffffff0000000000000000000000000000000000000000000000000000000082169050919050565b611ecb81611e96565b8114611ed657600080fd5b50565b600081359050611ee881611ec2565b92915050565b600060208284031215611f0457611f03611e8c565b5b6000611f1284828501611ed9565b91505092915050565b60008115159050919050565b611f3081611f1b565b82525050565b6000602082019050611f4b6000830184611f27565b92915050565b600081519050919050565b600082825260208201905092915050565b60005b83811015611f8b578082015181840152602081019050611f70565b60008484015250505050565b6000601f19601f8301169050919050565b6000611fb382611f51565b611fbd8185611f5c565b9350611fcd818560208601611f6d565b611fd681611f97565b840191505092915050565b60006020820190508181036000830152611ffb8184611fa8565b905092915050565b6000819050919050565b61201681612003565b811461202157600080fd5b50565b6000813590506120338161200d565b92915050565b60006020828403121561204f5761204e611e8c565b5b600061205d84828501612024565b91505092915050565b600073ffffffffffffffffffffffffffffffffffffffff82169050919050565b600061209182612066565b9050919050565b6120a181612086565b82525050565b60006020820190506120bc6000830184612098565b92915050565b6120cb81612086565b81146120d657600080fd5b50565b6000813590506120e8816120c2565b92915050565b6000806040838503121561210557612104611e8c565b5b6000612113858286016120d9565b925050602061212485828601612024565b9150509250929050565b600080fd5b600080fd5b7f4e487b7100000000000000000000000000000000000000000000000000000000600052604160045260246000fd5b61217082611f97565b810181811067ffffffffffffffff8211171561218f5761218e612138565b5b80604052505050565b60006121a2611e82565b90506121ae8282612167565b919050565b600067ffffffffffffffff8211156121ce576121cd612138565b5b6121d782611f97565b9050602081019050919050565b82818337600083830152505050565b6000612206612201846121b3565b612198565b90508281526020810184848401111561222257612221612133565b5b61222d8482856121e4565b509392505050565b600082601f83011261224a5761224961212e565b5b813561225a8482602086016121f3565b91505092915050565b6000806040838503121561227a57612279611e8c565b5b600061228885828601612024565b925050602083013567ffffffffffffffff8111156122a9576122a8611e91565b5b6122b585828601612235565b9150509250929050565b6000806000606084860312156122d8576122d7611e8c565b5b60006122e6868287016120d9565b93505060206122f7868287016120d9565b925050604061230886828701612024565b9150509250925092565b6000819050919050565b61232581612312565b811461233057600080fd5b50565b6000813590506123428161231c565b92915050565b60006020828403121561235e5761235d611e8c565b5b600061236c84828501612333565b91505092915050565b61237e81612312565b82525050565b60006020820190506123996000830184612375565b92915050565b600080604083850312156123b6576123b5611e8c565b5b60006123c485828601612333565b92505060206123d5858286016120d9565b9150509250929050565b6000602082840312156123f5576123f4611e8c565b5b6000612403848285016120d9565b91505092915050565b61241581612003565b82525050565b6000602082019050612430600083018461240c565b92915050565b61243f81611f1b565b811461244a57600080fd5b50565b60008135905061245c81612436565b92915050565b6000806040838503121561247957612478611e8c565b5b6000612487858286016120d9565b92505060206124988582860161244d565b9150509250929050565b600067ffffffffffffffff8211156124bd576124bc612138565b5b6124c682611f97565b9050602081019050919050565b60006124e66124e1846124a2565b612198565b90508281526020810184848401111561250257612501612133565b5b61250d8482856121e4565b509392505050565b600082601f83011261252a5761252961212e565b5b813561253a8482602086016124d3565b91505092915050565b6000806000806080858703121561255d5761255c611e8c565b5b600061256b878288016120d9565b945050602061257c878288016120d9565b935050604061258d87828801612024565b925050606085013567ffffffffffffffff8111156125ae576125ad611e91565b5b6125ba87828801612515565b91505092959194509250565b600080604083850312156125dd576125dc611e8c565b5b60006125eb858286016120d9565b92505060206125fc858286016120d9565b9150509250929050565b7f4e487b7100000000000000000000000000000000000000000000000000000000600052602260045260246000fd5b6000600282049050600182168061264d57607f821691505b6020821081036126605761265f612606565b5b50919050565b7f4552433732313a20617070726f76616c20746f2063757272656e74206f776e6560008201527f7200000000000000000000000000000000000000000000000000000000000000602082015250565b60006126c2602183611f5c565b91506126cd82612666565b604082019050919050565b600060208201905081810360008301526126f1816126b5565b9050919050565b7f4552433732313a20617070726f76652063616c6c6572206973206e6f7420746f60008201527f6b656e206f776e6572206e6f7220617070726f76656420666f7220616c6c0000602082015250565b6000612754603e83611f5c565b915061275f826126f8565b604082019050919050565b6000602082019050818103600083015261278381612747565b9050919050565b60008190508160005260206000209050919050565b60006020601f8301049050919050565b600082821b905092915050565b6000600883026127ec7fffffffffffffffffffffffffffffffffffffffffffffffffffffffffffffffff826127af565b6127f686836127af565b95508019841693508086168417925050509392505050565b6000819050919050565b600061283361282e61282984612003565b61280e565b612003565b9050919050565b6000819050919050565b61284d83612818565b6128616128598261283a565b8484546127bc565b825550505050565b600090565b612876612869565b612881818484612844565b505050565b5b818110156128a55761289a60008261286e565b600181019050612887565b5050565b601f8211156128ea576128bb8161278a565b6128c48461279f565b810160208510156128d3578190505b6128e76128df8561279f565b830182612886565b50505b505050565b600082821c905092915050565b600061290d600019846008026128ef565b1980831691505092915050565b600061292683836128fc565b9150826002028217905092915050565b61293f82611f51565b67ffffffffffffffff81111561295857612957612138565b5b6129628254612635565b61296d8282856128a9565b600060209050601f8311600181146129a0576000841561298e578287015190505b612998858261291a565b865550612a00565b601f1984166129ae8661278a565b60005b828110156129d6578489015182556001820191506020850194506020810190506129b1565b868310156129f357848901516129ef601f8916826128fc565b8355505b6001600288020188555050505b505050505050565b7f63616e206f6e6c79206f776e206f6e6520746f6b656e00000000000000000000600082015250565b6000612a3e601683611f5c565b9150612a4982612a08565b602082019050919050565b60006020820190508181036000830152612a6d81612a31565b9050919050565b7f416363657373436f6e74726f6c3a2063616e206f6e6c792072656e6f756e636560008201527f20726f6c657320666f722073656c660000000000000000000000000000000000602082015250565b6000612ad0602f83611f5c565b9150612adb82612a74565b604082019050919050565b60006020820190508181036000830152612aff81612ac3565b9050919050565b7f4552433732313a20696e76616c696420746f6b656e2049440000000000000000600082015250565b6000612b3c601883611f5c565b9150612b4782612b06565b602082019050919050565b60006020820190508181036000830152612b6b81612b2f565b9050919050565b7f4552433732313a2061646472657373207a65726f206973206e6f74206120766160008201527f6c6964206f776e65720000000000000000000000000000000000000000000000602082015250565b6000612bce602983611f5c565b9150612bd982612b72565b604082019050919050565b60006020820190508181036000830152612bfd81612bc1565b9050919050565b7f4552433732313a2063616c6c6572206973206e6f7420746f6b656e206f776e6560008201527f72206e6f7220617070726f766564000000000000000000000000000000000000602082015250565b6000612c60602e83611f5c565b9150612c6b82612c04565b604082019050919050565b60006020820190508181036000830152612c8f81612c53565b9050919050565b7f4552433732313a206d696e7420746f20746865207a65726f2061646472657373600082015250565b6000612ccc602083611f5c565b9150612cd782612c96565b602082019050919050565b60006020820190508181036000830152612cfb81612cbf565b9050919050565b7f4552433732313a20746f6b656e20616c7265616479206d696e74656400000000600082015250565b6000612d38601c83611f5c565b9150612d4382612d02565b602082019050919050565b60006020820190508181036000830152612d6781612d2b565b9050919050565b7f4e487b7100000000000000000000000000000000000000000000000000000000600052601160045260246000fd5b6000612da882612003565b9150612db383612003565b9250828201905080821115612dcb57612dca612d6e565b5b92915050565b7f4552433732313a20617070726f766520746f2063616c6c657200000000000000600082015250565b6000612e07601983611f5c565b9150612e1282612dd1565b602082019050919050565b60006020820190508181036000830152612e3681612dfa565b9050919050565b600081905092915050565b7f416363657373436f6e74726f6c3a206163636f756e7420000000000000000000600082015250565b6000612e7e601783612e3d565b9150612e8982612e48565b601782019050919050565b6000612e9f82611f51565b612ea98185612e3d565b9350612eb9818560208601611f6d565b80840191505092915050565b7f206973206d697373696e6720726f6c6520000000000000000000000000000000600082015250565b6000612efb601183612e3d565b9150612f0682612ec5565b601182019050919050565b6000612f1c82612e71565b9150612f288285612e94565b9150612f3382612eee565b9150612f3f8284612e94565b91508190509392505050565b7f4552433732313a207472616e736665722066726f6d20696e636f72726563742060008201527f6f776e6572000000000000000000000000000000000000000000000000000000602082015250565b6000612fa7602583611f5c565b9150612fb282612f4b565b604082019050919050565b60006020820190508181036000830152612fd681612f9a565b9050919050565b7f4552433732313a207472616e7366657220746f20746865207a65726f2061646460008201527f7265737300000000000000000000000000000000000000000000000000000000602082015250565b6000613039602483611f5c565b915061304482612fdd565b604082019050919050565b600060208201905081810360008301526130688161302c565b9050919050565b600061307a82612003565b915061308583612003565b925082820390508181111561309d5761309c612d6e565b5b92915050565b7f4552433732313a207472616e7366657220746f206e6f6e20455243373231526560008201527f63656976657220696d706c656d656e7465720000000000000000000000000000602082015250565b60006130ff603283611f5c565b915061310a826130a3565b604082019050919050565b6000602082019050818103600083015261312e816130f2565b9050919050565b600061314082612003565b915061314b83612003565b925082820261315981612003565b915082820484148315176131705761316f612d6e565b5b5092915050565b7f4e487b7100000000000000000000000000000000000000000000000000000000600052603260045260246000fd5b60006131b182612003565b9150600082036131c4576131c3612d6e565b5b600182039050919050565b7f537472696e67733a20686578206c656e67746820696e73756666696369656e74600082015250565b6000613205602083611f5c565b9150613210826131cf565b602082019050919050565b60006020820190508181036000830152613234816131f8565b9050919050565b600081519050919050565b600082825260208201905092915050565b60006132628261323b565b61326c8185613246565b935061327c818560208601611f6d565b61328581611f97565b840191505092915050565b60006080820190506132a56000830187612098565b6132b26020830186612098565b6132bf604083018561240c565b81810360608301526132d18184613257565b905095945050505050565b6000815190506132eb81611ec2565b92915050565b60006020828403121561330757613306611e8c565b5b6000613315848285016132dc565b9150509291505056fea26469706673582212205e3ceb43480677c24918590b0609f5034d86b78b3c5ed30593eaeb936c091eb464736f6c63430008110033",
  "linkReferences": {},
  "deployedLinkReferences": {}
}